:020000040800F2
:10000000C806002065020008550500084D050008D7
:100010005105000851030008850700080000000092
:10002000000000000000000000000000890500083A
:10003000550300080000000085050008BD05000804
:100040007F0200087F0200087F0200087F0200088C
:100050007F0200087F0200087F0200087F0200087C
:100060007F0200087F0200087F0200087F0200086C
:100070007F0200087F0200087F0200087F0200085C
:100080007F0200087F0200087F0200087F0200084C
:100090007F0200087F0200087F0200087F0200083C
:1000A0007F0200087F0200087F0200087F0200082C
:1000B0007F0200087F0200087F0200087F0200081C
:1000C0007F0200087F0200087F0200087F0200080C
:1000D0007F020008210600087F0200087F02000856
:1000E0007F0200087F0200087F0200087F020008EC
:1000F0007F0200087F0200087F0200087F020008DC
:100100007F0200087F0200087F0200087F020008CB
:100110007F0200087F0200087F0200087F020008BB
:100120007F0200087F0200087F0200087F020008AB
:100130007F02000800000000000000007F020008AD
:100140007F0200087F0200087F0200087F0200088B
:100150007F0200087F0200087F0200087F0200087B
:100160007F0200087F0200087F0200087F0200086B
:100170007F0200087F0200087F02000800000000E4
:10018000000000007F0200080000000000000000E6
:100190007F02000800000000000000007F0200084D
:1001A0000000000000000000000000007F020008C6
:1001B0007F0200087F0200087F0200087F0200081B
:1001C0007F02000800F002F800F03CF80AA090E876
:1001D000000C82448344AAF10107DA4501D100F002
:1001E00031F8AFF2090EBAE80F0013F0010F18BF93
:1001F000FB1A43F001031847F80500001806000039
:10020000103A24BF78C878C1FAD8520724BF30C842
:1002100030C144BF04680C60704700000023002414
:1002200000250026103A28BF78C1FBD8520728BF06
:1002300030C148BF0B6070471FB500F0CCFA1FBD3E
:1002400010B510BD00F031F81146FFF7F5FF00F0D2
:10025000B5FA00F04FF803B4FFF7F2FF03BC00F06B
:1002600057F800000948804709480047FEE7FEE7C5
:10027000FEE7FEE7FEE7FEE7FEE7FEE7FEE7FEE756
:1002800004480549054A064B70470000C5050008AB
:10029000C5010008C8000020C8060020C8020020D0
:1002A000C8020020704770477047754600F02CF870
:1002B000AE4605006946534620F00700854618B053
:1002C00020B5FFF7DDFFBDE820404FF000064FF0FE
:1002D00000074FF000084FF0000BAC46ACE8C00937
:1002E000ACE8C009ACE8C009ACE8C00921F00701DE
:1002F0008D46704710B50446AFF300802046BDE838
:100300001040FFF7A8BF00000048704758000020C9
:1003100001491820ABBEFEE726000200704700002E
:1003200080B500F065F84EF62450CEF2000001686A
:1003300021F4E021016040F2B800C2F2000001683F
:10034000096881F3088800684068804780BD000024
:10035000FEE700007047000040F2C000C2F200005B
:100360000068704740F2510040F2C001C2F2000044
:10037000C2F2000100780A6810440860704700006B
:10038000B0B540F25102C2F2000240F20001127810
:10039000C2F200014FF47A730968B3FBF2F204462B
:1003A000B1FBF2F1084600F0CDF80F2C4FF001053B
:1003B0000CD858B94FF0FF3021460022002500F03C
:1003C00007F840F25400C2F2000004602846B0BDB5
:1003D00070B514460D46064600F0D6F92946224669
:1003E00000F0BAF80146304600F0D6F970BD0000C2
:1003F000F0B581B043F60007C4F20207FFF7ACFF87
:100400003968044641F00100386000BF3868800751
:1004100005D4FFF7A1FF001B0228F7D93FE0386899
:1004200040F080003860FFF797FF0546002041F25A
:100430008836B860BC68FFF78FFF14F00C0F0446D5
:1004400003D0601BB042F5D929E0386820F4502071
:10045000386000BF3D68FFF77FFFA903054603D55D
:10046000281B6428F6D91AE0386820F080703860BC
:100470003C68FFF771FFA101064603D5701B0228F7
:10048000F6D90CE0386820F0806038603C68FFF7EF
:1004900063FF2101044605D5A01B0228F6D90320DD
:1004A00001B0F0BD386820F08050386038688000B6
:1004B00007D5FFF751FF001B02284FF00300F5D9C5
:1004C0003DE043F21000C2F200407860C7F88400BB
:1004D00000F16040C7F88800F86840F2000120F49D
:1004E000F850F860F86842F2004220F40050F860DA
:1004F000F868C2F2000120F48040F860F868C0F2A9
:10050000F40240F41F00F860F86840F40010F8604E
:10051000F86840F48000F860786F20F00100786798
:10052000786F40F08070786740F25400C2F20000AB
:1005300000680A60FFF724FF002818BF012001B0FF
:10054000F0BD000080B500F021F880BDFEE700009E
:10055000FEE70000FEE7000000F0070080F0070360
:10056000042B28BF04234FF0FF3C03380CFA03F39D
:1005700038BF0020994381400CFA00F022EA0000C5
:10058000084370477047000070470000B0B501385D
:100590000024B4EB106F1CBF0120B0BD4EF210055B
:1005A000CEF2000568604FF0FF300F2100F0F4F844
:1005B0000720AC6028602046B0BD000080B5FFF782
:1005C000D1FE80BD4EF68850CEF20000016841F4A5
:1005D000700101607047000043F63000C4F2020071
:1005E000016841F0010101600020C4F202000168CD
:1005F00041F400210160816841F440218160416A39
:1006000041F070014162016841F4001101608168AC
:1006100041F440118160416A41F4E06141627047F8
:1006200010B541F20004C4F201042068800642D5EE
:10063000606840F2BC01C2F20001087008783328FB
:1006400014D0322825D0312835D140F21500C2F21D
:100650000000142100F080F840F2B80044F20001DC
:10066000C2F20000C0F60001016024E040F23D004B
:10067000C2F20000142100F06FF844F20000C0F64E
:10068000000040F2B80100F50050C2F2000108601D
:1006900011E040F22900C2F20000142100F05CF8E1
:1006A00044F20000C0F6000040F2B80100F58050AE
:1006B000C2F200010860FFF733FE206820F020003E
:1006C00020604EF28420CEF20000016841F020014B
:1006D000016010BD80B5FFF77FFF43F64400C4F210
:1006E0000200016841F01001016041F20C00C4F207
:1006F000010000210160016841F0200101600168F2
:1007000041F400510160016821F48051016050F80A
:10071000041C41F0030140F8041C50F8041C41F48F
:10072000D06140F8041C016841F00C0101600168CF
:1007300021F48061016080BD4EF20410CEF2000011
:10074000016841F020010160D0F8801141F02001E2
:10075000C0F8801162B6704741F20002C4F2010293
:1007600061B14FF0000C00BF13681B06FCD510F8F8
:10077000013B0CF1010C8C455360F5D1106840062B
:10078000FCD57047FEE700004EF60C50CEF200009C
:100790000068C0F3022070474EF6145300F00F02B9
:1007A000CEF2000309011A4400F16043B0F1FF3FAB
:1007B000C8BF03F56442117070470000FFF78AFF5D
:1007C000FFF7BAFF40F20400C2F200001121FFF768
:1007D000C3FF00BFFEE7F1EE100A4FF6FF71C0F253
:1007E000C03120EA010040F04070E1EE100A70478D
:1007F0001008000800000020580000000002000857
:100800006808000858000020700600001C0200085C
:100810000024F40053656C656374207461736B216C
:1008200021210D0A004C6F6164696E672054617369
:100830006B20312121210D0A004C6F6164696E67C4
:10084000205461736B20322121210D0A004C6F610D
:1008500064696E67205461736B20332121210D0A76
:0808600000010000100000007F
:04000005080001C529
:00000001FF
