:020000040800F2
:10000000700600206502000845030008350300085B
:10001000430300081F0300088103000800000000DC
:10002000000000000000000000000000490300087C
:100030002103000800000000470300084B030008EC
:100040007F0200087F0200087F0200087F0200088C
:100050007F0200087F0200087F0200087F0200087C
:100060007F0200087F0200087F0200087F0200086C
:100070007F0200087F0200087F0200087F0200085C
:100080007F0200087F0200087F0200087F0200084C
:100090007F0200087F0200087F0200087F0200083C
:1000A0007F0200087F0200087F0200087F0200082C
:1000B0007F0200087F0200087F0200087F0200081C
:1000C0007F0200087F0200087F0200087F0200080C
:1000D0007F0200087F0200087F0200087F020008FC
:1000E0007F0200087F0200087F0200087F020008EC
:1000F0007F0200087F0200087F0200087F020008DC
:100100007F0200087F0200087F0200087F020008CB
:100110007F0200087F0200087F0200087F020008BB
:100120007F0200087F0200087F0200087F020008AB
:100130007F02000800000000000000007F020008AD
:100140007F0200087F0200087F0200087F0200088B
:100150007F0200087F0200087F0200087F0200087B
:100160007F0200087F0200087F0200087F0200086B
:100170007F0200087F0200087F02000800000000E4
:10018000000000007F0200080000000000000000E6
:100190007F02000800000000000000007F0200084D
:1001A0000000000000000000000000007F020008C6
:1001B0007F0200087F0200087F0200087F0200081B
:1001C0007F02000800F002F800F03CF80AA090E876
:1001D000000C82448344AAF10107DA4501D100F002
:1001E00031F8AFF2090EBAE80F0013F0010F18BF93
:1001F000FB1A43F001031847B4010000D4010000CA
:10020000103A24BF78C878C1FAD8520724BF30C842
:1002100030C144BF04680C60704700000023002414
:1002200000250026103A28BF78C1FBD8520728BF06
:1002300030C148BF0B6070471FB500F0B1F81FBD5B
:1002400010B510BD00F031F81146FFF7F5FF00F0D2
:1002500099F800F04FF803B4FFF7F2FF03BC00F089
:1002600057F800000948804709480047FEE7FEE7C5
:10027000FEE7FEE7FEE7FEE7FEE7FEE7FEE7FEE756
:1002800004480549054A064B704700005103000821
:10029000C5010008700000207006002070020020D8
:1002A00070020020704770477047754600F02CF8C8
:1002B000AE4605006946534620F00700854618B053
:1002C00020B5FFF7DDFFBDE820404FF000064FF0FE
:1002D00000074FF000084FF0000B21F00701AC467B
:1002E000ACE8C009ACE8C009ACE8C009ACE8C0099A
:1002F0008D46704710B50446AFF300802046BDE838
:100300001040FFF7A8BF0000004870470C00002015
:1003100001491820ABBEFEE7260002007047FEE749
:10032000704700000248816802781144816070477C
:1003300000000020FEE772B6016881F3088840687B
:100340000047FEE7FEE770477047FFF7EBBF00008E
:100350000248016841F470010160704788ED00E0D7
:100360000548064904E00A68920601D50120704755
:10037000401EF8D20020704740420F00001001409C
:10038000FEE700000548FFF7D6FFFFF7E9FF18B9C1
:100390004FF00060FFF7CFFFFEE700000000FF1FF7
:1003A0004FF04070E1EE100A70470000CC030008E7
:1003B000000000200C00000000020008D803000824
:1003C0000C000020640600001C0200080100000070
:0803D000100000000000000015
:04000005080001C529
:00000001FF
