:020000040800F2
:10000000E8060020650200084D03000845030008CB
:100010004903000821030008C10400080000000093
:100020000000000000000000000000005503000870
:1000300025030008000000005103000859030008D0
:100040007F0200087F0200087F0200087F0200088C
:100050007F0200087F0200087F0200087F0200087C
:100060007F0200087F0200087F0200087F0200086C
:100070007F0200087F0200087F0200087F0200085C
:100080007F0200087F0200087F0200087F0200084C
:100090007F0200087F0200087F0200087F0200083C
:1000A0007F0200087F0200087F0200087F0200082C
:1000B0007F0200087F0200087F0200087F0200081C
:1000C0007F0200087F0200087F0200087F0200080C
:1000D0007F020008BD0300087F0200087F020008BD
:1000E0007F0200087F0200087F0200087F020008EC
:1000F0007F0200087F0200087F0200087F020008DC
:100100007F0200087F0200087F0200087F020008CB
:100110007F0200087F0200087F0200087F020008BB
:100120007F0200087F0200087F0200087F020008AB
:100130007F02000800000000000000007F020008AD
:100140007F0200087F0200087F0200087F0200088B
:100150007F0200087F0200087F0200087F0200087B
:100160007F0200087F0200087F0200087F0200086B
:100170007F0200087F0200087F02000800000000E4
:10018000000000007F0200080000000000000000E6
:100190007F02000800000000000000007F0200084D
:1001A0000000000000000000000000007F020008C6
:1001B0007F0200087F0200087F0200087F0200081B
:1001C0007F02000800F002F800F03CF80AA090E876
:1001D000000C82448344AAF10107DA4501D100F002
:1001E00031F8AFF2090EBAE80F0013F0010F18BF93
:1001F000FB1A43F00103184700030000200300002E
:10020000103A24BF78C878C1FAD8520724BF30C842
:1002100030C144BF04680C60704700000023002414
:1002200000250026103A28BF78C1FBD8520728BF06
:1002300030C148BF0B6070471FB500F050F91FBDBB
:1002400010B510BD00F031F81146FFF7F5FF00F0D2
:1002500039F900F04FF803B4FFF7F2FF03BC00F0E8
:1002600057F800000948804709480047FEE7FEE7C5
:10027000FEE7FEE7FEE7FEE7FEE7FEE7FEE7FEE756
:1002800004480549054A064B704700006103000811
:10029000C5010008E8000020E8060020E802002070
:1002A000E8020020704770477047754600F02CF850
:1002B000AE4605006946534620F00700854618B053
:1002C00020B5FFF7DDFFBDE820404FF000064FF0FE
:1002D00000074FF000084FF0000BAC46ACE8C00937
:1002E000ACE8C009ACE8C009ACE8C00921F00701DE
:1002F0008D46704710B50446AFF300802046BDE838
:100300001040FFF7A8BF0000004870471800002009
:1003100001491820ABBEFEE726000200704700002E
:10032000FEE700007047000040F2110040F2E001DB
:10033000C2F20000C2F2000100780A6810440860AE
:1003400070470000FEE70000FEE70000FEE7000047
:10035000704700007047000080B5FFF7E5FF80BDE3
:100360004EF68850CEF20000016841F47001016041
:100370007047000043F63000C4F20200016841F00B
:10038000010101600020C4F20200016841F4002173
:100390000160816841F440218160416A41F070014F
:1003A0004162016841F400110160816841F440112B
:1003B0008160416A41F4E0614162704741F20000AE
:1003C000C4F201000168890621D5426840F2DD00CF
:1003D000C2F20000017840F2780C6229C2F2000CEF
:1003E00004D80378591C01700CF80320D2B26E2A8D
:1003F00002D00D2A18BF7047017800220CF80120A6
:1004000040F2DC01C2F2000101230B700270704760
:1004100080B5FFF7AFFF43F64400C4F20200016865
:1004200041F01001016041F20C00C4F20100002112
:100430000160016841F020010160016841F4005150
:100440000160016821F48051016050F8041C41F002
:10045000030140F8041C50F8041C41F4D06140F83A
:10046000041C016841F00C010160016821F4806105
:10047000016080BD4EF20410CEF20000016841F030
:1004800020010160D0F8801141F02001C0F88011F6
:1004900062B6704741F20002C4F2010261B14FF04E
:1004A000000C00BF13681B06FCD510F8013B0CF1D3
:1004B000010C8C455360F5D110684006FCD570479F
:1004C000FEE70000FFF7A4FFFFF7D4FF40F20000B3
:1004D000C2F200001121FFF7DDFF00BFFEE7F1EEE1
:1004E000100A4FF6FF71C0F2C03120EA010040F05F
:1004F0004070E1EE100A7047180500080000002067
:100500001800000000020008300500081800002054
:10051000D00600001C02000853656C6563742074EB
:1005200061736B2121210D0A000100000000000011
:04000005080001C529
:00000001FF
