:020000040800F2
:10000000880B002091020008990200089B0200085A
:100010009D0200089F020008A102000800000000E5
:10002000000000000000000000000000A302000823
:10003000A50200080000000067020008B9030008DC
:10004000AB020008AB020008AB020008AB020008DC
:10005000AB020008AB020008AB020008AB020008CC
:10006000AB020008AB020008AB020008AB020008BC
:10007000AB020008AB020008AB020008AB020008AC
:10008000AB020008AB020008AB020008AB0200089C
:10009000AB020008AB020008AB020008AB0200088C
:1000A000AB020008AB020008AB020008AB0200087C
:1000B000E1030008AB020008AB020008AB02000835
:1000C000AB020008AB020008AB020008AB0200085C
:1000D000AB020008AB020008AB020008AB0200084C
:1000E000AB020008AB020008AB020008AB0200083C
:1000F000AB020008AB020008AB020008AB0200082C
:10010000AB020008AB020008AB020008AB0200081B
:10011000AB020008AB020008AB020008AB0200080B
:10012000AB020008AB020008AB020008AB020008FB
:10013000AB0200080000000000000000AB02000855
:10014000AB020008AB020008AB020008AB020008DB
:10015000AB020008AB020008AB020008AB020008CB
:10016000AB020008AB020008AB020008AB020008BB
:10017000AB020008AB020008AB0200080000000060
:1001800000000000AB0200080000000000000000BA
:10019000AB0200080000000000000000AB020008F5
:1001A000000000000000000000000000AB0200089A
:1001B000AB020008AB020008AB020008AB0200086B
:1001C000AB02000800F002F800F02EF80AA090E858
:1001D000000C82448344AAF10107DA4501D100F002
:1001E00023F8AFF2090EBAE80F0013F0010F18BFA1
:1001F000FB1A43F001031847D0040000E00400009C
:100200000023002400250026103A28BF78C1FBD81F
:10021000520728BF30C148BF0B6070471FB500F0C0
:1002200046FA1FBD10B510BD00F084F81146FFF767
:10023000F5FF00F05FF900F0A2F803B4FFF7F2FF5A
:1002400003BC00F0A9F8000010480268D2F800D002
:10025000BDE8F00F0FBC5DF804CB01B05DF804EB16
:1002600001B062B6704772B62DE9F00F0748016819
:10027000C1F800D001B500F0F3F9BDE80140016814
:10028000D1F800D0BDE8F00F62B6704758050020E5
:100290000948804709480047FEE7FEE7FEE7FEE71A
:1002A000FEE7FEE7FEE7FEE7FEE7FEE70448054956
:1002B000054A064B70470000CD030008C501000841
:1002C00088050020880B0020880700208807002070
:1002D00002F0FF0343EA032242EA024200F005B8BB
:1002E0007047704770474FF0000200B513469446C0
:1002F0009646203922BFA0E80C50A0E80C50B1F17E
:100300002001BFF4F7AF090728BFA0E80C5048BF91
:100310000CC05DF804EB890028BF40F8042B08BF2F
:10032000704748BF20F8022B11F0804F18BF00F82B
:10033000012B7047754600F02BF8AE460500694664
:10034000534620F00700854618B020B5FFF7AEFFF2
:10035000BDE820404FF000064FF000074FF00008C6
:100360004FF0000BAC46ACE8C009ACE8C009ACE803
:10037000C009ACE8C00921F007018D46704710B5EF
:100380000446AFF300802046BDE81040FFF755BF9C
:10039000004870470000002001491820ABBEFEE76E
:1003A000260002007047000040F26C50C2F20000CC
:1003B00001680131016070474EF60450CEF2000032
:1003C000016841F080510160704700004EF688508E
:1003D000CEF20000016841F4700101607047000036
:1003E00080B51020C4F200000021016040F26400DA
:1003F000C2F200000068804780BD000040F25C50FF
:10040000C2F20000016801310160FBE740F2605078
:10041000C2F20000016801310160FBE740F2645064
:10042000C2F20000016801310160FBE743F63000D1
:10043000C4F20200016841F0010101600020C4F231
:100440000200016841F400210160816841F440210B
:100450008160416A41F070014162016841F400111C
:100460000160816841F440118160416A41F4E061BA
:100470004162704780B5FFF7D9FF43F64400C4F2EC
:100480000200016841F01001016041F20C00C4F269
:10049000010000210160016841F400510160016820
:1004A00021F48051016050F8041C41F0030140F830
:1004B000041C50F8041C41F4D06140F8041C01688D
:1004C00041F00C010160016821F48061016080BD90
:1004D0004EF6145300F00F02CEF2000309011A4445
:1004E00000F16043B0F1FF3FC8BF03F564421170F3
:1004F0007047000040F2A930C0F60000642100F00F
:1005000015F840F2FD3040F20D4140F21D42C0F6B8
:100510000000C0F60001C0F6000200F027F8FFF767
:10052000A9FF00F053F800BFFEE7000010B5024637
:100530004FF00000C9B140F2685CC2F2000CDCF878
:100540000030052B08BF10BD40F2680E03EB4300DE
:10055000C2F2000E0EEB80044EF82020481EC4E9C3
:100560000110581CCCF80000012010BD2DE9F0410D
:1005700040F270570646EFF3108072B6C2F20007E1
:1005800007F10800786007F11000F860002090463D
:100590000D467F6100F048F840F2A404C2F2000466
:1005A0000120C4F8886100F03FF80220C4F8185315
:1005B00000F03AF840F25850C2F200000760012003
:1005C000C4F8A88462B6BDE8F081000080B540F2AE
:1005D000600041F64011C2F20000C0F2010101606A
:1005E0000A2000F001F880BD10B54EF21004CEF2E2
:1005F000000400212160A16040F26001C2F200010C
:1006000009684843013860604FF0FF300021FFF770
:100610005FFF206840F005002060206840F0020085
:100620002060FFF711FE10BD80B540F2A401C2F2B8
:1006300000014FF4C87200FB021240F2705302F541
:10064000A871C2F2000343F830104FF08070C2F876
:100650008C0108463821AA22FFF73AFE80BD00002F
:1006600070B540F2545440F26806C2F20004012012
:100670000025C2F20006207003E000BF0C353C2DBF
:100680000DD0711920784968B0FBF1F202FB11001E
:100690000028F3D17059002818BF8047EEE740F2D8
:1006A0005850C2F2000001684968016070BDF1EE67
:1006B000100A4FF6FF71C0F2C03120EA010040F08D
:1006C0004070E1EE100A7047D806000800000020D4
:0806D000880B00000002000885
:04000005080001C529
:00000001FF
